{
  "contractName": "filelink",
  "abi": [
    {
      "inputs": [],
      "stateMutability": "nonpayable",
      "type": "constructor"
    },
    {
      "anonymous": false,
      "inputs": [
        {
          "indexed": false,
          "internalType": "uint256",
          "name": "index",
          "type": "uint256"
        },
        {
          "indexed": false,
          "internalType": "address payable",
          "name": "downloader",
          "type": "address"
        },
        {
          "indexed": false,
          "internalType": "address payable",
          "name": "uploader",
          "type": "address"
        },
        {
          "indexed": false,
          "internalType": "uint256",
          "name": "amount",
          "type": "uint256"
        }
      ],
      "name": "buying",
      "type": "event"
    },
    {
      "anonymous": false,
      "inputs": [
        {
          "indexed": false,
          "internalType": "uint256",
          "name": "index",
          "type": "uint256"
        },
        {
          "indexed": false,
          "internalType": "address",
          "name": "uploader",
          "type": "address"
        },
        {
          "indexed": false,
          "internalType": "string",
          "name": "magnets",
          "type": "string"
        }
      ],
      "name": "downloading",
      "type": "event"
    },
    {
      "inputs": [],
      "name": "owner",
      "outputs": [
        {
          "internalType": "address payable",
          "name": "",
          "type": "address"
        }
      ],
      "stateMutability": "view",
      "type": "function"
    },
    {
      "inputs": [
        {
          "internalType": "address",
          "name": "uploader",
          "type": "address"
        },
        {
          "internalType": "string",
          "name": "magnet",
          "type": "string"
        }
      ],
      "name": "downloadFile",
      "outputs": [
        {
          "internalType": "bool",
          "name": "result",
          "type": "bool"
        }
      ],
      "stateMutability": "payable",
      "type": "function"
    },
    {
      "inputs": [
        {
          "internalType": "address",
          "name": "addr",
          "type": "address"
        },
        {
          "internalType": "uint256",
          "name": "amount",
          "type": "uint256"
        }
      ],
      "name": "taxCollection",
      "outputs": [
        {
          "internalType": "uint256",
          "name": "",
          "type": "uint256"
        }
      ],
      "stateMutability": "payable",
      "type": "function"
    },
    {
      "inputs": [
        {
          "internalType": "uint256",
          "name": "index",
          "type": "uint256"
        }
      ],
      "name": "getFileInfo",
      "outputs": [
        {
          "internalType": "address payable",
          "name": "uploader",
          "type": "address"
        },
        {
          "internalType": "string",
          "name": "magnet",
          "type": "string"
        }
      ],
      "stateMutability": "view",
      "type": "function"
    },
    {
      "inputs": [
        {
          "internalType": "uint256",
          "name": "index",
          "type": "uint256"
        },
        {
          "internalType": "address payable",
          "name": "uploader",
          "type": "address"
        },
        {
          "internalType": "string",
          "name": "magnet",
          "type": "string"
        }
      ],
      "name": "setFileInfo",
      "outputs": [
        {
          "internalType": "bool",
          "name": "",
          "type": "bool"
        }
      ],
      "stateMutability": "nonpayable",
      "type": "function"
    }
  ],
  "bytecode": "0x608060405234801561001057600080fd5b50336000806101000a81548173ffffffffffffffffffffffffffffffffffffffff021916908373ffffffffffffffffffffffffffffffffffffffff160217905550610e61806100606000396000f3fe60806040526004361061004a5760003560e01c80634c6d4a551461004f5780638da5cb5b1461007f578063ccedc21a146100aa578063d7d56035146100e7578063f10a6e9814610125575b600080fd5b610069600480360381019061006491906108c6565b610155565b604051610076919061093d565b60405180910390f35b34801561008b57600080fd5b50610094610291565b6040516100a19190610979565b60405180910390f35b3480156100b657600080fd5b506100d160048036038101906100cc91906109f6565b6102b5565b6040516100de919061093d565b60405180910390f35b3480156100f357600080fd5b5061010e60048036038101906101099190610a65565b610356565b60405161011c929190610b1a565b60405180910390f35b61013f600480360381019061013a9190610b4a565b610478565b60405161014c9190610b99565b60405180910390f35b6000652d79883d2000341461019f576040517f08c379a000000000000000000000000000000000000000000000000000000000815260040161019690610c00565b60405180910390fd5b6101a98383610548565b6101e8576040517f08c379a00000000000000000000000000000000000000000000000000000000081526004016101df90610c6c565b60405180910390fd5b7f0e849a897204660497352f31acefdb9b5a6f93f9790f2b389d0a64397409b4f5600180546102179190610cbb565b61021f610633565b85652d79883d20006040516102379493929190610cef565b60405180910390a17f592ed906950a407629297b42d5cbafcf3e5f1ea3d8aa87f5709a5486fffd05766001805461026e9190610cbb565b848460405161027f93929190610d43565b60405180910390a16001905092915050565b60008054906101000a900473ffffffffffffffffffffffffffffffffffffffff1681565b60006003600085815260200190815260200160002050826003600086815260200190815260200160002060010160006101000a81548173ffffffffffffffffffffffffffffffffffffffff021916908373ffffffffffffffffffffffffffffffffffffffff1602179055508160036000868152602001908152602001600020600001908051906020019061034a92919061063b565b50600190509392505050565b6000606060006003600085815260200190815260200160002060405180604001604052908160008201805461038a90610db0565b80601f01602080910402602001604051908101604052809291908181526020018280546103b690610db0565b80156104035780601f106103d857610100808354040283529160200191610403565b820191906000526020600020905b8154815290600101906020018083116103e657829003601f168201915b505050505081526020016001820160009054906101000a900473ffffffffffffffffffffffffffffffffffffffff1673ffffffffffffffffffffffffffffffffffffffff1673ffffffffffffffffffffffffffffffffffffffff16815250509050806020015192508060000151915050915091565b600080600090506000818461048d9190610cbb565b90508473ffffffffffffffffffffffffffffffffffffffff166108fc829081150290604051600060405180830381858888f193505050501580156104d5573d6000803e3d6000fd5b5060008054906101000a900473ffffffffffffffffffffffffffffffffffffffff1673ffffffffffffffffffffffffffffffffffffffff166108fc839081150290604051600060405180830381858888f1935050505015801561053c573d6000803e3d6000fd5b50809250505092915050565b60006105526106c1565b83816020019073ffffffffffffffffffffffffffffffffffffffff16908173ffffffffffffffffffffffffffffffffffffffff16815250508281600001819052508060036000600154815260200190815260200160002060008201518160000190805190602001906105c592919061063b565b5060208201518160010160006101000a81548173ffffffffffffffffffffffffffffffffffffffff021916908373ffffffffffffffffffffffffffffffffffffffff1602179055509050506001600081548092919061062390610de2565b9190505550600191505092915050565b600033905090565b82805461064790610db0565b90600052602060002090601f01602090048101928261066957600085556106b0565b82601f1061068257805160ff19168380011785556106b0565b828001600101855582156106b0579182015b828111156106af578251825591602001919060010190610694565b5b5090506106bd91906106f1565b5090565b604051806040016040528060608152602001600073ffffffffffffffffffffffffffffffffffffffff1681525090565b5b8082111561070a5760008160009055506001016106f2565b5090565b6000604051905090565b600080fd5b600080fd5b600073ffffffffffffffffffffffffffffffffffffffff82169050919050565b600061074d82610722565b9050919050565b61075d81610742565b811461076857600080fd5b50565b60008135905061077a81610754565b92915050565b600080fd5b600080fd5b6000601f19601f8301169050919050565b7f4e487b7100000000000000000000000000000000000000000000000000000000600052604160045260246000fd5b6107d38261078a565b810181811067ffffffffffffffff821117156107f2576107f161079b565b5b80604052505050565b600061080561070e565b905061081182826107ca565b919050565b600067ffffffffffffffff8211156108315761083061079b565b5b61083a8261078a565b9050602081019050919050565b82818337600083830152505050565b600061086961086484610816565b6107fb565b90508281526020810184848401111561088557610884610785565b5b610890848285610847565b509392505050565b600082601f8301126108ad576108ac610780565b5b81356108bd848260208601610856565b91505092915050565b600080604083850312156108dd576108dc610718565b5b60006108eb8582860161076b565b925050602083013567ffffffffffffffff81111561090c5761090b61071d565b5b61091885828601610898565b9150509250929050565b60008115159050919050565b61093781610922565b82525050565b6000602082019050610952600083018461092e565b92915050565b600061096382610722565b9050919050565b61097381610958565b82525050565b600060208201905061098e600083018461096a565b92915050565b6000819050919050565b6109a781610994565b81146109b257600080fd5b50565b6000813590506109c48161099e565b92915050565b6109d381610958565b81146109de57600080fd5b50565b6000813590506109f0816109ca565b92915050565b600080600060608486031215610a0f57610a0e610718565b5b6000610a1d868287016109b5565b9350506020610a2e868287016109e1565b925050604084013567ffffffffffffffff811115610a4f57610a4e61071d565b5b610a5b86828701610898565b9150509250925092565b600060208284031215610a7b57610a7a610718565b5b6000610a89848285016109b5565b91505092915050565b600081519050919050565b600082825260208201905092915050565b60005b83811015610acc578082015181840152602081019050610ab1565b83811115610adb576000848401525b50505050565b6000610aec82610a92565b610af68185610a9d565b9350610b06818560208601610aae565b610b0f8161078a565b840191505092915050565b6000604082019050610b2f600083018561096a565b8181036020830152610b418184610ae1565b90509392505050565b60008060408385031215610b6157610b60610718565b5b6000610b6f8582860161076b565b9250506020610b80858286016109b5565b9150509250929050565b610b9381610994565b82525050565b6000602082019050610bae6000830184610b8a565b92915050565b7f4e6f7420656e6f7567682045544d000000000000000000000000000000000000600082015250565b6000610bea600e83610a9d565b9150610bf582610bb4565b602082019050919050565b60006020820190508181036000830152610c1981610bdd565b9050919050565b7f4661696c20746f206164642061206e6577206c696e6b20496e666f0000000000600082015250565b6000610c56601b83610a9d565b9150610c6182610c20565b602082019050919050565b60006020820190508181036000830152610c8581610c49565b9050919050565b7f4e487b7100000000000000000000000000000000000000000000000000000000600052601160045260246000fd5b6000610cc682610994565b9150610cd183610994565b925082821015610ce457610ce3610c8c565b5b828203905092915050565b6000608082019050610d046000830187610b8a565b610d11602083018661096a565b610d1e604083018561096a565b610d2b6060830184610b8a565b95945050505050565b610d3d81610742565b82525050565b6000606082019050610d586000830186610b8a565b610d656020830185610d34565b8181036040830152610d778184610ae1565b9050949350505050565b7f4e487b7100000000000000000000000000000000000000000000000000000000600052602260045260246000fd5b60006002820490506001821680610dc857607f821691505b60208210811415610ddc57610ddb610d81565b5b50919050565b6000610ded82610994565b91507fffffffffffffffffffffffffffffffffffffffffffffffffffffffffffffffff821415610e2057610e1f610c8c565b5b60018201905091905056fea26469706673582212201771899914a8a3ea8cd3ba19176b62c4d77da0b0c30f6d63b825c810192e472464736f6c63430008090033",
  "immutableReferences": {},
  "source": "// SPDX-License-Identifier: MIT\r\npragma solidity >=0.4.22 <0.9.0;\r\n\r\n\r\ncontract filelink{\r\n    // file save data structs\r\n    struct linkInfo{\r\n        string magnet;\r\n        address payable uploader;\r\n    }\r\n\r\n    address payable public owner;\r\n\r\n    //    0.05   \r\n    uint256 constant internal DOWN_AMOUNT = 5*10**13;\r\n\r\n    //block first & lask index checking values\r\n    uint256 private _tail;\r\n    uint256 private _head;\r\n\r\n    mapping (uint256 => linkInfo) private _links;\r\n\r\n    event buying(uint256 index, address payable downloader, address payable uploader,uint256 amount);\r\n    event downloading(uint256 index, address uploader, string magnets);\r\n\r\n    //         \r\n    enum BlockStatus {checkable, notRebuild, blocklimitedpass}\r\n\r\n    //init\r\n    constructor() {\r\n        owner = payable(msg.sender);\r\n    }\r\n\r\n    // address != payable address\r\n    function _msgSender() internal view virtual returns (address payable)\r\n    { \r\n            return payable(msg.sender); // added payable \r\n    }\r\n\r\n    // etherium que push\r\n    function pushLink (address payable uploader, string memory magnet) internal returns(bool result){\r\n        linkInfo memory l;\r\n        l.uploader = uploader;\r\n        l.magnet = magnet;\r\n\r\n        _links[_tail] = l;\r\n        _tail++;\r\n        return true;\r\n    }\r\n\r\n    //   etherium que pop\r\n    /*\r\n    function poplink(uint256 index) internal returns (bool)\r\n    {\r\n        delete _links[index];\r\n        return true;\r\n    }\r\n    */\r\n    \r\n    // if downloader request download file address execute this function\r\n    function downloadFile (address uploader, string memory magnet) public payable returns (bool result)\r\n    {\r\n        //check the proper ether is sent\r\n        require(msg.value == DOWN_AMOUNT , \"Not enough ETM\");\r\n        //push the download to the que\r\n        require(pushLink(payable(uploader), magnet), \"Fail to add a new link Info\");\r\n        //email event\r\n        emit buying(_tail-1,_msgSender(), payable(uploader), DOWN_AMOUNT);\r\n\r\n        emit downloading(_tail-1,uploader, magnet);\r\n        \r\n        return true;\r\n    }\r\n\r\n    // we get some fee for operating this system\r\n    function taxCollection(address addr, uint256 amount) public payable returns (uint256)\r\n    {\r\n        // test fee is 0\r\n        uint256 fee = 0;\r\n        // get eth amount by uploader\r\n        uint256 amountWithoutFee = amount - fee;\r\n\r\n        payable(addr).transfer(amountWithoutFee);\r\n        owner.transfer(fee);\r\n\r\n        return amountWithoutFee;\r\n\r\n    }\r\n\r\n    function getFileInfo(uint256 index) public view returns (address payable uploader, string memory magnet)\r\n    {\r\n        linkInfo memory b = _links[index];\r\n        uploader = b.uploader;\r\n        magnet = b.magnet;\r\n    }\r\n\r\n    function setFileInfo(uint256 index, address payable uploader, string memory magnet) public returns (bool)\r\n    {\r\n        _links[index];\r\n        _links[index].uploader = uploader;\r\n        _links[index].magnet = magnet;\r\n        return true;\r\n    }\r\n\r\n\r\n    \r\n}",
  "sourcePath": "C:\\Users\\c9606\\OneDrive\\ \\file-link\\contracts\\filelink.sol",
  "compiler": {
    "name": "solc",
    "version": "0.8.9+commit.e5eed63a.Emscripten.clang"
  },
  "schemaVersion": "3.4.3",
  "updatedAt": "2021-12-06T13:00:06.848Z",
  "devdoc": {
    "kind": "dev",
    "methods": {},
    "version": 1
  },
  "userdoc": {
    "kind": "user",
    "methods": {},
    "version": 1
  }
}